{
    "_format": "hh-sol-artifact-1",
    "contractName": "Poem",
    "sourceName": "contracts/Poem.sol",
    "abi": [
        {
            "inputs": [
                {
                    "internalType": "uint256",
                    "name": "_mintPrice",
                    "type": "uint256"
                }
            ],
            "stateMutability": "nonpayable",
            "type": "constructor"
        },
        {
            "inputs": [],
            "name": "ApprovalCallerNotOwnerNorApproved",
            "type": "error"
        },
        {
            "inputs": [],
            "name": "ApprovalQueryForNonexistentToken",
            "type": "error"
        },
        {
            "inputs": [],
            "name": "ApproveToCaller",
            "type": "error"
        },
        {
            "inputs": [],
            "name": "BalanceQueryForZeroAddress",
            "type": "error"
        },
        {
            "inputs": [],
            "name": "InvalidIndexMin1Max25",
            "type": "error"
        },
        {
            "inputs": [],
            "name": "MintERC2309QuantityExceedsLimit",
            "type": "error"
        },
        {
            "inputs": [],
            "name": "MintFeeNotMet",
            "type": "error"
        },
        {
            "inputs": [],
            "name": "MintToZeroAddress",
            "type": "error"
        },
        {
            "inputs": [],
            "name": "MintZeroQuantity",
            "type": "error"
        },
        {
            "inputs": [
                {
                    "internalType": "address",
                    "name": "to",
                    "type": "address"
                }
            ],
            "name": "OneCanHoldMax3Tokens",
            "type": "error"
        },
        {
            "inputs": [],
            "name": "OutOfTokens",
            "type": "error"
        },
        {
            "inputs": [],
            "name": "OwnerQueryForNonexistentToken",
            "type": "error"
        },
        {
            "inputs": [],
            "name": "OwnershipNotInitializedForExtraData",
            "type": "error"
        },
        {
            "inputs": [],
            "name": "TransferCallerNotOwnerNorApproved",
            "type": "error"
        },
        {
            "inputs": [],
            "name": "TransferFromIncorrectOwner",
            "type": "error"
        },
        {
            "inputs": [],
            "name": "TransferToNonERC721ReceiverImplementer",
            "type": "error"
        },
        {
            "inputs": [],
            "name": "TransferToZeroAddress",
            "type": "error"
        },
        {
            "inputs": [],
            "name": "URIQueryForNonexistentToken",
            "type": "error"
        },
        {
            "inputs": [],
            "name": "YouCanOnlyMint1Token",
            "type": "error"
        },
        {
            "anonymous": false,
            "inputs": [
                {
                    "indexed": true,
                    "internalType": "address",
                    "name": "owner",
                    "type": "address"
                },
                {
                    "indexed": true,
                    "internalType": "address",
                    "name": "approved",
                    "type": "address"
                },
                {
                    "indexed": true,
                    "internalType": "uint256",
                    "name": "tokenId",
                    "type": "uint256"
                }
            ],
            "name": "Approval",
            "type": "event"
        },
        {
            "anonymous": false,
            "inputs": [
                {
                    "indexed": true,
                    "internalType": "address",
                    "name": "owner",
                    "type": "address"
                },
                {
                    "indexed": true,
                    "internalType": "address",
                    "name": "operator",
                    "type": "address"
                },
                {
                    "indexed": false,
                    "internalType": "bool",
                    "name": "approved",
                    "type": "bool"
                }
            ],
            "name": "ApprovalForAll",
            "type": "event"
        },
        {
            "anonymous": false,
            "inputs": [
                {
                    "indexed": true,
                    "internalType": "uint256",
                    "name": "fromTokenId",
                    "type": "uint256"
                },
                {
                    "indexed": false,
                    "internalType": "uint256",
                    "name": "toTokenId",
                    "type": "uint256"
                },
                {
                    "indexed": true,
                    "internalType": "address",
                    "name": "from",
                    "type": "address"
                },
                {
                    "indexed": true,
                    "internalType": "address",
                    "name": "to",
                    "type": "address"
                }
            ],
            "name": "ConsecutiveTransfer",
            "type": "event"
        },
        {
            "anonymous": false,
            "inputs": [
                {
                    "indexed": true,
                    "internalType": "address",
                    "name": "previousOwner",
                    "type": "address"
                },
                {
                    "indexed": true,
                    "internalType": "address",
                    "name": "newOwner",
                    "type": "address"
                }
            ],
            "name": "OwnershipTransferred",
            "type": "event"
        },
        {
            "anonymous": false,
            "inputs": [
                {
                    "indexed": true,
                    "internalType": "address",
                    "name": "from",
                    "type": "address"
                },
                {
                    "indexed": true,
                    "internalType": "address",
                    "name": "to",
                    "type": "address"
                },
                {
                    "indexed": true,
                    "internalType": "uint256",
                    "name": "tokenId",
                    "type": "uint256"
                }
            ],
            "name": "Transfer",
            "type": "event"
        },
        {
            "inputs": [],
            "name": "MAX_NUM_NFTS",
            "outputs": [
                {
                    "internalType": "uint8",
                    "name": "",
                    "type": "uint8"
                }
            ],
            "stateMutability": "view",
            "type": "function"
        },
        {
            "inputs": [
                {
                    "internalType": "address",
                    "name": "to",
                    "type": "address"
                },
                {
                    "internalType": "uint256",
                    "name": "tokenId",
                    "type": "uint256"
                }
            ],
            "name": "approve",
            "outputs": [],
            "stateMutability": "nonpayable",
            "type": "function"
        },
        {
            "inputs": [
                {
                    "internalType": "address",
                    "name": "owner",
                    "type": "address"
                }
            ],
            "name": "balanceOf",
            "outputs": [
                {
                    "internalType": "uint256",
                    "name": "",
                    "type": "uint256"
                }
            ],
            "stateMutability": "view",
            "type": "function"
        },
        {
            "inputs": [
                {
                    "internalType": "uint256",
                    "name": "tokenId",
                    "type": "uint256"
                }
            ],
            "name": "burn",
            "outputs": [],
            "stateMutability": "nonpayable",
            "type": "function"
        },
        {
            "inputs": [],
            "name": "currStep",
            "outputs": [
                {
                    "internalType": "uint8",
                    "name": "",
                    "type": "uint8"
                }
            ],
            "stateMutability": "view",
            "type": "function"
        },
        {
            "inputs": [
                {
                    "internalType": "uint256",
                    "name": "tokenId",
                    "type": "uint256"
                }
            ],
            "name": "getApproved",
            "outputs": [
                {
                    "internalType": "address",
                    "name": "",
                    "type": "address"
                }
            ],
            "stateMutability": "view",
            "type": "function"
        },
        {
            "inputs": [],
            "name": "getDefaultSvg",
            "outputs": [
                {
                    "internalType": "string",
                    "name": "",
                    "type": "string"
                }
            ],
            "stateMutability": "view",
            "type": "function"
        },
        {
            "inputs": [
                {
                    "internalType": "uint8",
                    "name": "_tokenId",
                    "type": "uint8"
                }
            ],
            "name": "getHiddenLevel",
            "outputs": [
                {
                    "internalType": "uint8",
                    "name": "",
                    "type": "uint8"
                }
            ],
            "stateMutability": "view",
            "type": "function"
        },
        {
            "inputs": [
                {
                    "internalType": "uint256",
                    "name": "_tokenId",
                    "type": "uint256"
                },
                {
                    "internalType": "uint16",
                    "name": "jitterLevel",
                    "type": "uint16"
                },
                {
                    "internalType": "uint16",
                    "name": "hiddenLevel",
                    "type": "uint16"
                },
                {
                    "internalType": "string",
                    "name": "poem",
                    "type": "string"
                },
                {
                    "internalType": "string",
                    "name": "_imageData",
                    "type": "string"
                }
            ],
            "name": "getJSON",
            "outputs": [
                {
                    "internalType": "string",
                    "name": "",
                    "type": "string"
                }
            ],
            "stateMutability": "pure",
            "type": "function"
        },
        {
            "inputs": [
                {
                    "internalType": "uint8",
                    "name": "_tokenId",
                    "type": "uint8"
                }
            ],
            "name": "getJitterLevel",
            "outputs": [
                {
                    "internalType": "uint8",
                    "name": "",
                    "type": "uint8"
                }
            ],
            "stateMutability": "view",
            "type": "function"
        },
        {
            "inputs": [
                {
                    "internalType": "address",
                    "name": "owner",
                    "type": "address"
                },
                {
                    "internalType": "address",
                    "name": "operator",
                    "type": "address"
                }
            ],
            "name": "isApprovedForAll",
            "outputs": [
                {
                    "internalType": "bool",
                    "name": "",
                    "type": "bool"
                }
            ],
            "stateMutability": "view",
            "type": "function"
        },
        {
            "inputs": [],
            "name": "mint",
            "outputs": [],
            "stateMutability": "payable",
            "type": "function"
        },
        {
            "inputs": [],
            "name": "mintFee",
            "outputs": [
                {
                    "internalType": "uint256",
                    "name": "",
                    "type": "uint256"
                }
            ],
            "stateMutability": "view",
            "type": "function"
        },
        {
            "inputs": [],
            "name": "name",
            "outputs": [
                {
                    "internalType": "string",
                    "name": "",
                    "type": "string"
                }
            ],
            "stateMutability": "view",
            "type": "function"
        },
        {
            "inputs": [],
            "name": "owner",
            "outputs": [
                {
                    "internalType": "address",
                    "name": "",
                    "type": "address"
                }
            ],
            "stateMutability": "view",
            "type": "function"
        },
        {
            "inputs": [
                {
                    "internalType": "uint256",
                    "name": "tokenId",
                    "type": "uint256"
                }
            ],
            "name": "ownerOf",
            "outputs": [
                {
                    "internalType": "address",
                    "name": "",
                    "type": "address"
                }
            ],
            "stateMutability": "view",
            "type": "function"
        },
        {
            "inputs": [
                {
                    "internalType": "uint256",
                    "name": "",
                    "type": "uint256"
                }
            ],
            "name": "path",
            "outputs": [
                {
                    "internalType": "uint8",
                    "name": "",
                    "type": "uint8"
                }
            ],
            "stateMutability": "view",
            "type": "function"
        },
        {
            "inputs": [],
            "name": "renounceOwnership",
            "outputs": [],
            "stateMutability": "nonpayable",
            "type": "function"
        },
        {
            "inputs": [
                {
                    "internalType": "address",
                    "name": "from",
                    "type": "address"
                },
                {
                    "internalType": "address",
                    "name": "to",
                    "type": "address"
                },
                {
                    "internalType": "uint256",
                    "name": "tokenId",
                    "type": "uint256"
                }
            ],
            "name": "safeTransferFrom",
            "outputs": [],
            "stateMutability": "nonpayable",
            "type": "function"
        },
        {
            "inputs": [
                {
                    "internalType": "address",
                    "name": "from",
                    "type": "address"
                },
                {
                    "internalType": "address",
                    "name": "to",
                    "type": "address"
                },
                {
                    "internalType": "uint256",
                    "name": "tokenId",
                    "type": "uint256"
                },
                {
                    "internalType": "bytes",
                    "name": "_data",
                    "type": "bytes"
                }
            ],
            "name": "safeTransferFrom",
            "outputs": [],
            "stateMutability": "nonpayable",
            "type": "function"
        },
        {
            "inputs": [
                {
                    "internalType": "address",
                    "name": "operator",
                    "type": "address"
                },
                {
                    "internalType": "bool",
                    "name": "approved",
                    "type": "bool"
                }
            ],
            "name": "setApprovalForAll",
            "outputs": [],
            "stateMutability": "nonpayable",
            "type": "function"
        },
        {
            "inputs": [
                {
                    "internalType": "bytes4",
                    "name": "interfaceId",
                    "type": "bytes4"
                }
            ],
            "name": "supportsInterface",
            "outputs": [
                {
                    "internalType": "bool",
                    "name": "",
                    "type": "bool"
                }
            ],
            "stateMutability": "view",
            "type": "function"
        },
        {
            "inputs": [],
            "name": "symbol",
            "outputs": [
                {
                    "internalType": "string",
                    "name": "",
                    "type": "string"
                }
            ],
            "stateMutability": "view",
            "type": "function"
        },
        {
            "inputs": [
                {
                    "internalType": "uint256",
                    "name": "_tokenId",
                    "type": "uint256"
                }
            ],
            "name": "tokenURI",
            "outputs": [
                {
                    "internalType": "string",
                    "name": "",
                    "type": "string"
                }
            ],
            "stateMutability": "view",
            "type": "function"
        },
        {
            "inputs": [],
            "name": "totalBurned",
            "outputs": [
                {
                    "internalType": "uint256",
                    "name": "",
                    "type": "uint256"
                }
            ],
            "stateMutability": "view",
            "type": "function"
        },
        {
            "inputs": [],
            "name": "totalMinted",
            "outputs": [
                {
                    "internalType": "uint256",
                    "name": "",
                    "type": "uint256"
                }
            ],
            "stateMutability": "view",
            "type": "function"
        },
        {
            "inputs": [
                {
                    "internalType": "address",
                    "name": "to",
                    "type": "address"
                }
            ],
            "name": "totalMintedTo",
            "outputs": [
                {
                    "internalType": "uint256",
                    "name": "",
                    "type": "uint256"
                }
            ],
            "stateMutability": "view",
            "type": "function"
        },
        {
            "inputs": [],
            "name": "totalSupply",
            "outputs": [
                {
                    "internalType": "uint256",
                    "name": "",
                    "type": "uint256"
                }
            ],
            "stateMutability": "view",
            "type": "function"
        },
        {
            "inputs": [
                {
                    "internalType": "address",
                    "name": "from",
                    "type": "address"
                },
                {
                    "internalType": "address",
                    "name": "to",
                    "type": "address"
                },
                {
                    "internalType": "uint256",
                    "name": "tokenId",
                    "type": "uint256"
                }
            ],
            "name": "transferFrom",
            "outputs": [],
            "stateMutability": "nonpayable",
            "type": "function"
        },
        {
            "inputs": [
                {
                    "internalType": "address",
                    "name": "newOwner",
                    "type": "address"
                }
            ],
            "name": "transferOwnership",
            "outputs": [],
            "stateMutability": "nonpayable",
            "type": "function"
        },
        {
            "inputs": [
                {
                    "internalType": "uint256",
                    "name": "mintFeeWei",
                    "type": "uint256"
                }
            ],
            "name": "updateMintFee",
            "outputs": [],
            "stateMutability": "nonpayable",
            "type": "function"
        },
        {
            "inputs": [
                {
                    "internalType": "contract IERC20",
                    "name": "_erc20Token",
                    "type": "address"
                }
            ],
            "name": "withdrawAllERC20",
            "outputs": [],
            "stateMutability": "nonpayable",
            "type": "function"
        },
        {
            "inputs": [],
            "name": "withdrawAllEth",
            "outputs": [],
            "stateMutability": "nonpayable",
            "type": "function"
        }
    ],
    "bytecode": "0x7e1524263335374244464851535557596264666873757784869500000000000060099081556101c0604052600160a0908152600060c081905260e08190526101008190526101208190526101408190526101608190526101805260196101a0526200006e91600a919062000549565b50600b805460ff191690556001600c556040805161034081018252600081526541732068652061020360f01b0160208201527f0405000006000000000000000000000000000000000000007265616368656420918101919091527f05060000040000000000000000000000000000000000000064726f707065642060608201527f0708000a0900000000000000000000000000000000000000757077617264732060808201527f0809000a0700000000000000000000000000000000006869732068616e64732060a08201527f090a00080700000000000000000000000000000000000068697320657965732060c08201527f0b0c0f0e0d00000000000000000000000000000000006a6f796f75736c792c2060e08201527f0c0d0f0e0b000000000000000000000000746f2074686520636c6f7564732c206101008201527f0d0e0f0c0b00000000000000000000000000000000000000007368796c792c206101208201527f0e0f0d0c0b0000000000000000746f7761726473206869732073686f65732c206101408201527e10131211000000000000000000000000000000000000007468652073756e206101608201527f10110013120000000000000000000000000000000000007468652077696e64206101808201527f11120013100000000000000000000000000074686520666f6f747374657073206101a08201527f1213001110000000000000007468756e6465726f7573206c61756768746572206101c08201527f130012111000000000000000007477696e6b6c696e67206665617468657273206101e08201527e140016150000000000000000000000000000000000626f69737465726564206102008201527f14150000160000000000000000000000000000000000006173737561676564206102208201527f151600001400000000000000000000000000000000006563686f656420696e206102408201527f16000015140000000000000000000000000000000000000062727573686564206102608201527e170000180000000000000000000000686973206578636974656d656e742e206102808201527f1718000000000000000000000000000000000000006869732066656172732e206102a08201527f1800000017000000000000000000000000000000000068697320656172732e206102c08201527e190000000000000000000000000000000000486973207374727567676c65206102e08201527f19000000000000000000000000000000000048697320616476656e747572652061030082015272776173206a75737420626567696e6e696e672e6103208201526200044390600e90601a620005e3565b503480156200045157600080fd5b50604051620048f4380380620048f483398101604081905262000474916200062b565b6040518060400160405280600e81526020016d2837b2b6a830ba343334b73232b960911b81525060405180604001604052806004815260200163504f454d60e01b8152508160029081620004c99190620006ea565b506003620004d88282620006ea565b50506000805550620004ea33620004f7565b43608052600d55620007b6565b600880546001600160a01b038381166001600160a01b0319831681179093556040519116919082907f8be0079c531659141344cd1fd0a4f28419497f9722a3daafe3b4186f6b6457e090600090a35050565b600183019183908215620005d15791602002820160005b83821115620005a057835183826101000a81548160ff021916908360ff160217905550926020019260010160208160000104928301926001030262000560565b8015620005cf5782816101000a81549060ff0219169055600101602081600001049283019260010302620005a0565b505b50620005df92915062000614565b5090565b82601a8101928215620005d1579160200282015b82811115620005d1578251825591602001919060010190620005f7565b5b80821115620005df576000815560010162000615565b6000602082840312156200063e57600080fd5b5051919050565b634e487b7160e01b600052604160045260246000fd5b600181811c908216806200067057607f821691505b6020821081036200069157634e487b7160e01b600052602260045260246000fd5b50919050565b601f821115620006e557600081815260208120601f850160051c81016020861015620006c05750805b601f850160051c820191505b81811015620006e157828155600101620006cc565b5050505b505050565b81516001600160401b0381111562000706576200070662000645565b6200071e816200071784546200065b565b8462000697565b602080601f8311600181146200075657600084156200073d5750858301515b600019600386901b1c1916600185901b178555620006e1565b600085815260208120601f198616915b82811015620007875788860151825594840194600190910190840162000766565b5085821015620007a65787850151600019600388901b60f8161c191681555b5050505050600190811b01905550565b60805161410d620007e760003960008181610cf301528181610ef9015281816111b80152611ace015261410d6000f3fe6080604052600436106101fe5760003560e01c8063857abbd41161011d578063af6d1fe4116100b0578063d89135cd1161007f578063f2b380c611610064578063f2b380c6146105ca578063f2fde38b146105ea578063fc9ea2db1461060a57600080fd5b8063d89135cd1461056c578063e985e9c51461058157600080fd5b8063af6d1fe4146104ec578063b22921851461050c578063b88d4fde1461052c578063c87b56dd1461054c57600080fd5b806398349483116100ec57806398349483146104825780639b753eb914610497578063a22cb465146104b7578063a2309ff8146104d757600080fd5b8063857abbd41461040f5780638d6e58801461042f5780638da5cb5b1461044f57806395d89b411461046d57600080fd5b806323b872dd116101955780636352211e116101645780636352211e1461039a57806370a08231146103ba578063715018a6146103da57806384017e52146103ef57600080fd5b806323b872dd1461032557806342842e0e1461034557806342966c6814610365578063519af30e1461038557600080fd5b8063095ea7b3116101d1578063095ea7b3146102be5780631249c58b146102e057806313966db5146102e857806318160ddd1461030c57600080fd5b806301ffc9a71461020357806305cba2cb1461023857806306fdde0314610264578063081812fc14610286575b600080fd5b34801561020f57600080fd5b5061022361021e366004612db4565b61061f565b60405190151581526020015b60405180910390f35b34801561024457600080fd5b50600b546102529060ff1681565b60405160ff909116815260200161022f565b34801561027057600080fd5b50610279610671565b60405161022f9190612e29565b34801561029257600080fd5b506102a66102a1366004612e3c565b610703565b6040516001600160a01b03909116815260200161022f565b3480156102ca57600080fd5b506102de6102d9366004612e6a565b610747565b005b6102de610811565b3480156102f457600080fd5b506102fe600d5481565b60405190815260200161022f565b34801561031857600080fd5b50600154600054036102fe565b34801561033157600080fd5b506102de610340366004612e96565b6108b0565b34801561035157600080fd5b506102de610360366004612e96565b610aa5565b34801561037157600080fd5b506102de610380366004612e3c565b610ac5565b34801561039157600080fd5b506102de610ad0565b3480156103a657600080fd5b506102a66103b5366004612e3c565b610b09565b3480156103c657600080fd5b506102fe6103d5366004612ed7565b610b14565b3480156103e657600080fd5b506102de610b63565b3480156103fb57600080fd5b506102de61040a366004612e3c565b610b77565b34801561041b57600080fd5b506102de61042a366004612ed7565b610b84565b34801561043b57600080fd5b506102fe61044a366004612ed7565b610c80565b34801561045b57600080fd5b506008546001600160a01b03166102a6565b34801561047957600080fd5b50610279610cab565b34801561048e57600080fd5b50610252600781565b3480156104a357600080fd5b506102526104b2366004612ef4565b610cba565b3480156104c357600080fd5b506102de6104d2366004612f25565b610d36565b3480156104e357600080fd5b506000546102fe565b3480156104f857600080fd5b50610252610507366004612e3c565b610dd0565b34801561051857600080fd5b5061027961052736600461301c565b610dfa565b34801561053857600080fd5b506102de6105473660046130ab565b610e4f565b34801561055857600080fd5b50610279610567366004612e3c565b610e99565b34801561057857600080fd5b506102fe610f62565b34801561058d57600080fd5b5061022361059c36600461312b565b6001600160a01b03918216600090815260076020908152604080832093909416825291909152205460ff1690565b3480156105d657600080fd5b506102526105e5366004612ef4565b610f6d565b3480156105f657600080fd5b506102de610605366004612ed7565b610f95565b34801561061657600080fd5b50610279611027565b60006301ffc9a760e01b6001600160e01b03198316148061065057506380ac58cd60e01b6001600160e01b03198316145b8061066b5750635b5e139f60e01b6001600160e01b03198316145b92915050565b60606002805461068090613159565b80601f01602080910402602001604051908101604052809291908181526020018280546106ac90613159565b80156106f95780601f106106ce576101008083540402835291602001916106f9565b820191906000526020600020905b8154815290600101906020018083116106dc57829003601f168201915b5050505050905090565b600061070e82611048565b61072b576040516333d1c03960e21b815260040160405180910390fd5b506000908152600660205260409020546001600160a01b031690565b600061075282610b09565b9050336001600160a01b038216146107a8576001600160a01b038116600090815260076020908152604080832033845290915290205460ff166107a8576040516367d9dca160e11b815260040160405180910390fd5b600082815260066020526040808220805473ffffffffffffffffffffffffffffffffffffffff19166001600160a01b0387811691821790925591518593918516917f8c5be1e5ebec7d5bd14f71427d1e84f3dd0314c0f7b2291e5b200ac8c7c3b92591a4505050565b600d54341461083357604051639a5561f360e01b815260040160405180910390fd5b33600761083f60005490565b1061085d5760405163027f2d6760e21b815260040160405180910390fd5b6001600160a01b038116600090815260056020526040908190205467ffffffffffffffff911c16156108a257604051630a06c4e960e21b815260040160405180910390fd5b6108ad81600161106f565b50565b60006108bb82611089565b9050836001600160a01b0316816001600160a01b0316146108ee5760405162a1148160e81b815260040160405180910390fd5b6000828152600660205260409020805461091a8187335b6001600160a01b039081169116811491141790565b610962576001600160a01b038616600090815260076020908152604080832033845290915290205460ff1661096257604051632ce44b5f60e11b815260040160405180910390fd5b6001600160a01b03851661098957604051633a954ecd60e21b815260040160405180910390fd5b61099686868660016110f7565b80156109a157600082555b6001600160a01b038087166000908152600560205260408082208054600019019055918716815220805460010190556109fa856109df88828761115b565b600160e11b174260a01b176001600160a01b03919091161790565b600085815260046020526040812091909155600160e11b84169003610a4f57600184016000818152600460205260408120549003610a4d576000548114610a4d5760008181526004602052604090208490555b505b83856001600160a01b0316876001600160a01b03167fddf252ad1be2c89b69c2b068fc378daa952ba7f163c4a11628f55a4df523b3ef60405160405180910390a4610a9d868686600161117e565b505050505050565b610ac083838360405180602001604052806000815250610e4f565b505050565b6108ad816001611251565b6008546040516001600160a01b03909116904780156108fc02916000818181858888f193505050501580156108ad573d6000803e3d6000fd5b600061066b82611089565b60006001600160a01b038216610b3d576040516323d3ad8160e21b815260040160405180910390fd5b506001600160a01b031660009081526005602052604090205467ffffffffffffffff1690565b610b6b6113f6565b610b756000611450565b565b610b7f6113f6565b600d55565b806001600160a01b031663a9059cbb610ba56008546001600160a01b031690565b6040516370a0823160e01b81523060048201526001600160a01b038516906370a0823190602401602060405180830381865afa158015610be9573d6000803e3d6000fd5b505050506040513d601f19601f82011682018060405250810190610c0d9190613193565b6040516001600160e01b031960e085901b1681526001600160a01b03909216600483015260248201526044016020604051808303816000875af1158015610c58573d6000803e3d6000fd5b505050506040513d601f19601f82011682018060405250810190610c7c91906131ac565b5050565b6001600160a01b0381166000908152600560205260408082205467ffffffffffffffff911c1661066b565b60606003805461068090613159565b600080610cc98360ff166114af565b80516001600160a01b031660009081526005602052604081205491925060c09190911c9081610d187f0000000000000000000000000000000000000000000000000000000000000000436131df565b610d2291906131df565b9050610d2d81611527565b95945050505050565b336001600160a01b03831603610d5f5760405163b06307db60e01b815260040160405180910390fd5b3360008181526007602090815260408083206001600160a01b03871680855290835292819020805460ff191686151590811790915590519081529192917f17307eab39ab6107e8899845ad3d59bd9653f200f220920489ca2b5937696c31910160405180910390a35050565b905090565b600a8160098110610de057600080fd5b60209182820401919006915054906101000a900460ff1681565b6060610e058661156e565b610e128561ffff1661156e565b610e1f8761ffff1661156e565b8585604051602001610e35959493929190613212565b604051602081830303815290604052905095945050505050565b610e5a8484846108b0565b6001600160a01b0383163b15610e9357610e76848484846116b2565b610e93576040516368d2bf6b60e11b815260040160405180910390fd5b50505050565b6060610ea482611048565b610ec157604051630a14c4b560e41b815260040160405180910390fd5b6000610ecc836114af565b80516001600160a01b0316600090815260056020526040812054606083015192935060c01c919082610f1e7f0000000000000000000000000000000000000000000000000000000000000000436131df565b610f2891906131df565b600b54909150610f5890879060ff16600a610f428661179d565b610f4b86611527565b610f5361181a565b611837565b9695505050505050565b6000610dcb60015490565b600080610f7c8360ff166114af565b6060810151909150610f8d8161179d565b949350505050565b610f9d6113f6565b6001600160a01b03811661101e5760405162461bcd60e51b815260206004820152602660248201527f4f776e61626c653a206e6577206f776e657220697320746865207a65726f206160448201527f646472657373000000000000000000000000000000000000000000000000000060648201526084015b60405180910390fd5b6108ad81611450565b600b54606090610dcb9060009060ff16600a828061104361181a565b6118a4565b600080548210801561066b575050600090815260046020526040902054600160e01b161590565b610c7c828260405180602001604052806000815250611a29565b6000816000548110156110de5760008181526004602052604081205490600160e01b821690036110dc575b806000036110d55750600019016000818152600460205260409020546110b4565b9392505050565b505b604051636f96cda160e11b815260040160405180910390fd5b826001600160a01b031660000361112657600b54600760ff90911610156111215761112182611a96565b610e93565b600261113184610b14565b1115610e93576040516351ed1d1760e01b81526001600160a01b0384166004820152602401611015565b600060e882811c9061116e868684611d16565b62ffffff16901b95945050505050565b61119f600c54856001600160a01b0316856001600160a01b03164443611d4f565b600c556001600160a01b038316156112215760006111dd7f0000000000000000000000000000000000000000000000000000000000000000436131df565b6001600160a01b0385166000908152600560205260409020805477ffffffffffffffffffffffffffffffffffffffffffffffff1660c083901b179055905050610e93565b61122d6001600761345e565b60ff1661123960015490565b03610e9357600b805460ff1916600817905550505050565b600061125c83611089565b90508060008061127a86600090815260066020526040902080549091565b9150915084156112d75761128f818433610905565b6112d7576001600160a01b038316600090815260076020908152604080832033845290915290205460ff166112d757604051632ce44b5f60e11b815260040160405180910390fd5b6112e58360008860016110f7565b80156112f057600082555b6001600160a01b038316600090815260056020526040812080546fffffffffffffffffffffffffffffffff01905561134b9084906113309082908861115b565b600360e01b174260a01b176001600160a01b03919091161790565b600087815260046020526040812091909155600160e11b851690036113a05760018601600081815260046020526040812054900361139e57600054811461139e5760008181526004602052604090208590555b505b60405186906000906001600160a01b038616907fddf252ad1be2c89b69c2b068fc378daa952ba7f163c4a11628f55a4df523b3ef908390a46113e683600088600161117e565b5050600180548101905550505050565b6008546001600160a01b03163314610b755760405162461bcd60e51b815260206004820181905260248201527f4f776e61626c653a2063616c6c6572206973206e6f7420746865206f776e65726044820152606401611015565b600880546001600160a01b0383811673ffffffffffffffffffffffffffffffffffffffff19831681179093556040519116919082907f8be0079c531659141344cd1fd0a4f28419497f9722a3daafe3b4186f6b6457e090600090a35050565b60408051608081018252600080825260208201819052918101829052606081019190915261066b6114df83611089565b604080516080810182526001600160a01b038316815260a083901c67ffffffffffffffff166020820152600160e01b831615159181019190915260e89190911c606082015290565b60008061153383611d80565b9050600481116115465750600092915050565b600c811161156557603661155b82600c613481565b6110d591906131df565b50606492915050565b6060816000036115955750506040805180820190915260018152600360fc1b602082015290565b8160005b81156115bf57806115a9816134a0565b91506115b89050600a836134cf565b9150611599565b60008167ffffffffffffffff8111156115da576115da612f70565b6040519080825280601f01601f191660200182016040528015611604576020820181803683370190505b509050815b85156116a95761161a6001826131df565b90506000611629600a886134cf565b61163490600a613481565b61163e90886131df565b6116499060306134e3565b905060008160f81b90508084848151811061166657611666613508565b60200101907effffffffffffffffffffffffffffffffffffffffffffffffffffffffffffff1916908160001a9053506116a0600a896134cf565b97505050611609565b50949350505050565b604051630a85bd0160e11b81526000906001600160a01b0385169063150b7a02906116e790339089908890889060040161351e565b6020604051808303816000875af1925050508015611722575060408051601f3d908101601f1916820190925261171f91810190613550565b60015b611780573d808015611750576040519150601f19603f3d011682016040523d82523d6000602084013e611755565b606091505b508051600003611778576040516368d2bf6b60e11b815260040160405180910390fd5b805181602001fd5b6001600160e01b031916630a85bd0160e11b149050949350505050565b600060058262ffffff1610156117b557506000919050565b600a8262ffffff1610156117cb5750600a919050565b60148262ffffff1610156117e15750600f919050565b601e8262ffffff1610156117f757506014919050565b60288262ffffff16101561180d57506019919050565b50601e919050565b919050565b600060026003600c54901c61182f919061356d565b600114905090565b6060600061184f8888888860ff168860ff16886118a4565b9050611878611873898760ff168760ff1661186a8c8c611d8f565b61052787611e29565b611e29565b6040516020016118889190613581565b6040516020818303038152906040529150509695505050505050565b606060006118b38460646135c6565b905060006118c48261ffff1661156e565b6040516020016118d491906135e9565b60405160208183030381529060405290508161ffff1660640361190b57506040805180820190915260018152603160f81b60208201525b600061192461191b88600a613613565b61ffff1661156e565b6040805161ffff808b166020830152891691810191909152606081018c9052909150600090611972906080016040516020818303038152906040528051906020012060001c61ffff1661156e565b905060008161198a6119858e600161363d565b61156e565b848560405160200161199f9493929190613655565b604051602081830303815290604052905086156119ea57806119c38b8d8786611f90565b6040516020016119d492919061388c565b6040516020818303038152906040529050611a1a565b806119f78b8d87866120b0565b604051602001611a0892919061388c565b60405160208183030381529060405290505b9b9a5050505050505050505050565b611a3383836122ce565b6001600160a01b0383163b15610ac0576000548281035b611a5d60008683806001019450866116b2565b611a7a576040516368d2bf6b60e11b815260040160405180910390fd5b818110611a4a578160005414611a8f57600080fd5b5050505050565b6000611aa1826114af565b80516001600160a01b0316600090815260056020526040812054606083015192935060c01c919082611af37f0000000000000000000000000000000000000000000000000000000000000000436131df565b611afd91906131df565b90506000611b0a82611527565b90508060ff16606403611b5057600b805460019190600090611b3090849060ff166134e3565b92506101000a81548160ff021916908360ff160217905550505050505050565b6000611b5d82606461345e565b90506000611b6a8561179d565b905060006064611b8060ff808516908616613613565b611b8a91906138bb565b905060006002611b9a838661345e565b611ba491906138dc565b9050806000611bb48260026138fe565b90506000611bc285836134e3565b8c51600c549192506001600160a01b0316016000611be160648361356d565b90506000611bf28f60000151612410565b600b8054919250600191600090611c0d90849060ff166134e3565b92506101000a81548160ff021916908360ff1602179055506000611c3082612538565b90506000611c3d83612559565b90508760ff168460ff1611611c9557611c57828284612577565b600b54600a9060ff1660098110611c7057611c70613508565b602091828204019190066101000a81548160ff021916908360ff160217905550611d02565b8660ff168460ff1611611cad57611c57828283612577565b8560ff168460ff1611611d0257611cc883601e87901c6125a1565b600b54600a9060ff1660098110611ce157611ce1613508565b602091828204019190066101000a81548160ff021916908360ff1602179055505b505050505050505050505050505050505050565b60006001600160a01b038316611d2d5750806110d5565b62ffffff600183018116818110611d46575090506110d5565b91506110d59050565b60006001600160a01b038086168401908516830180821115611d7657908701039050610d2d565b8701039050610d2d565b600061066b62033450836134cf565b60408051602081019091526000808252606091905b60098160ff161015611e21576000848260ff1660098110611dc757611dc7613508565b602081049091015460ff601f9092166101000a900416905082611deb838884612686565b604051602001611dfc92919061388c565b6040516020818303038152906040529250508080611e1990613927565b915050611da4565b509392505050565b60608151600003611e4857505060408051602081019091526000815290565b60006040518060600160405280604081526020016140c16040913990506000600384516002611e77919061363d565b611e8191906134cf565b611e8c906004613481565b90506000611e9b82602061363d565b67ffffffffffffffff811115611eb357611eb3612f70565b6040519080825280601f01601f191660200182016040528015611edd576020820181803683370190505b509050818152600183018586518101602084015b81831015611f4b5760039283018051603f601282901c811687015160f890811b8552600c83901c8216880151811b6001860152600683901c8216880151811b60028601529116860151901b93820193909352600401611ef1565b600389510660018114611f655760028114611f7657611f82565b613d3d60f01b600119830152611f82565b603d60f81b6000198301525b509398975050505050505050565b6060600082848485868788604051602001611fb19796959493929190613946565b60408051601f19818403018152919052905060015b60198160ff1611612084576000611fdc82612726565b90506000611fe983612760565b90508361204d8a60018460006020020151612004919061345e565b60ff166009811061201757612017613508565b602081049091015460ff601f9092166101000a9004168a612037866127a8565b85516020870151899160ff90811691168d61293d565b60405160200161205e92919061388c565b60405160208183030381529060405293505050808061207c90613927565b915050611fc6565b50806040516020016120969190613b7a565b604051602081830303815290604052915050949350505050565b6060600082846040516020016120c7929190613bbb565b6040516020818303038152906040529050600061229e6120e78789611d8f565b61212d60405180604001604052806005815260200164636c61737360d81b815250876040516020016121199190613cb2565b604051602081830303815290604052612aab565b61216a604051806040016040528060018152602001600f60fb1b81525060405180604001604052806002815260200161033360f41b815250612aab565b6121a7604051806040016040528060018152602001607960f81b81525060405180604001604052806002815260200161032360f41b815250612aab565b6121e9604051806040016040528060058152602001640eed2c8e8d60db1b8152506040518060400160405280600381526020016203736360ec1b815250612aab565b61222c604051806040016040528060068152602001651a195a59da1d60d21b8152506040518060400160405280600381526020016203736360ec1b815250612aab565b6122766040518060400160405280600681526020017f66696c74657200000000000000000000000000000000000000000000000000008152508c6040516020016121199190613cf7565b60405160200161228a959493929190613d47565b604051602081830303815290604052612ad7565b905081816040516020016122b3929190613db2565b60405160208183030381529060405292505050949350505050565b60008054908290036122f35760405163b562e8dd60e01b815260040160405180910390fd5b61230060008483856110f7565b6001600160a01b0383166000908152600560205260408120805468010000000000000001850201905561235790849061233a90828161115b565b6001851460e11b174260a01b176001600160a01b03919091161790565b6000828152600460205260408120919091556001600160a01b0384169083830190839083907fddf252ad1be2c89b69c2b068fc378daa952ba7f163c4a11628f55a4df523b3ef8180a4600183015b8181146123dd57808360007fddf252ad1be2c89b69c2b068fc378daa952ba7f163c4a11628f55a4df523b3ef600080a46001016123a5565b50816000036123fe57604051622e076360e81b815260040160405180910390fd5b6000908155610ac0915084838561117e565b600b546000908190600a9060ff166009811061242e5761242e613508565b602081049091015460ff601f9092166101000a900416905080156124525792915050565b600b5460ff165b60ff821615801561246d575060008160ff16115b156124b25761247d60018261345e565b9050600a8160ff166009811061249557612495613508565b602081049091015460ff601f9092166101000a9004169150612459565b805b600b5460ff908116908216101561252f5760006124d084612538565b905060006124dd85612559565b90506124ea600288613e09565b6001600160a01b031660000361250c57612505828284612577565b945061251a565b612517828283612577565b94505b5081905061252781613927565b9150506124b4565b50909392505050565b60006125468260ff16612bd2565b61254f82612bfd565b60005b1a92915050565b60006125678260ff16612bd2565b61257082612bfd565b6001612552565b600060ff8216156125895750806110d5565b60ff8416156125995750826110d5565b509092915050565b60006125af8360ff16612bd2565b60006125ba84612c1d565b905060005b600360ff821610156126395760006125d860028661356d565b90506000838360ff16600381106125f1576125f1613508565b602002015190508160ff16600114801561260e575060008160ff16115b1561261e57935061066b92505050565b505060019390931c928061263181613927565b9150506125bf565b50600061264585612538565b9050600061265286612559565b905061265f60028661356d565b60010361267b57612671828284612577565b935050505061066b565b610f58828283612577565b60608260ff168460ff1611156126d0575060408051808201909152600f81527fe29688e29688e29688e29688e29688000000000000000000000000000000000060208201526110d5565b8160ff16600003612715575060408051808201909152601081527fe29688e29688e29688e29688e29688200000000000000000000000000000000060208201526110d5565b610f8d61272183612726565b6127a8565b60006127348260ff16612bd2565b7affffffffffffffffffffffffffffffffffffffffffffffffffffff61275983612bfd565b1692915050565b612768612d62565b60095460009060ff84166020811061278257612782613508565b6040805180820190915291901a600481901c600f90811683521660208201529392505050565b60606000805b60208160ff16101561281a57838160ff16602081106127cf576127cf613508565b1a60f81b7fff000000000000000000000000000000000000000000000000000000000000001615612808578161280481613927565b9250505b8061281281613927565b9150506127ae565b5060008160ff1667ffffffffffffffff81111561283957612839612f70565b6040519080825280601f01601f191660200182016040528015612863576020820181803683370190505b5090506000805b60208160ff16101561293357858160ff166020811061288b5761288b613508565b1a60f81b7fff00000000000000000000000000000000000000000000000000000000000000161561292157858160ff16602081106128cb576128cb613508565b1a60f81b838360ff16815181106128e4576128e4613508565b60200101907effffffffffffffffffffffffffffffffffffffffffffffffffffffffffffff1916908160001a9053508161291d81613927565b9250505b8061292b81613927565b91505061286a565b5090949350505050565b606060ff871661294e6001866131df565b111561297157604051806040016040528060018152602001603f60f81b81525095505b612a9f866129a860405180604001604052806005815260200164636c61737360d81b8152506129a38c8c8b8b8a612ca9565b612aab565b6040805180820190915260018152600f60fb1b60208201526129de906129a360286129d48a6050613481565b61198591906131df565b6040805180820190915260018152607960f81b6020820152612a08906129a36119858b604b613481565b612a4a604051806040016040528060058152602001640eed2c8e8d60db1b8152506040518060400160405280600381526020016203133360ec1b815250612aab565b612a8c604051806040016040528060068152602001651a195a59da1d60d21b81525060405180604001604052806002815260200161036360f41b815250612aab565b60405160200161228a9493929190613e2f565b98975050505050505050565b60608282604051602001612ac0929190613e86565b604051602081830303815290604052905092915050565b6060610f8d6040518060400160405280600d81526020017f666f726569676e4f626a6563740000000000000000000000000000000000000081525083612bcd604051806040016040528060038152602001623234bb60e91b815250612ba66040518060400160405280600581526020017f786d6c6e730000000000000000000000000000000000000000000000000000008152506040518060400160405280601c81526020017f687474703a2f2f7777772e77332e6f72672f313939392f7868746d6c00000000815250612aab565b88604051602001612bb892919061388c565b60405160208183030381529060405289612d31565b612d31565b801580612bdf5750601981115b156108ad576040516304db871360e21b815260040160405180910390fd5b6000600e8260ff16601a8110612c1557612c15613508565b015492915050565b612c25612d80565b612c318260ff16612bd2565b612c39612d80565b6000612c4484612bfd565b905060005b600360ff8216101561252f5781612c618260026134e3565b60ff1660208110612c7457612c74613508565b1a8360ff831660038110612c8a57612c8a613508565b60ff909216602092909202015280612ca181613927565b915050612c49565b6060612cb66001846131df565b8560ff1610612d20578360ff168660ff1603612cf35781604051602001612cdd9190613edb565b6040516020818303038152906040529050610d2d565b8560ff16600003612d0f5781604051602001612cdd9190613f2e565b81604051602001612cdd9190613f81565b81604051602001610e359190613fd4565b606083838386604051602001612d4a9493929190614027565b60405160208183030381529060405290509392505050565b60405180604001604052806002906020820280368337509192915050565b60405180606001604052806003906020820280368337509192915050565b6001600160e01b0319811681146108ad57600080fd5b600060208284031215612dc657600080fd5b81356110d581612d9e565b60005b83811015612dec578181015183820152602001612dd4565b83811115610e935750506000910152565b60008151808452612e15816020860160208601612dd1565b601f01601f19169290920160200192915050565b6020815260006110d56020830184612dfd565b600060208284031215612e4e57600080fd5b5035919050565b6001600160a01b03811681146108ad57600080fd5b60008060408385031215612e7d57600080fd5b8235612e8881612e55565b946020939093013593505050565b600080600060608486031215612eab57600080fd5b8335612eb681612e55565b92506020840135612ec681612e55565b929592945050506040919091013590565b600060208284031215612ee957600080fd5b81356110d581612e55565b600060208284031215612f0657600080fd5b813560ff811681146110d557600080fd5b80151581146108ad57600080fd5b60008060408385031215612f3857600080fd5b8235612f4381612e55565b91506020830135612f5381612f17565b809150509250929050565b803561ffff8116811461181557600080fd5b634e487b7160e01b600052604160045260246000fd5b600067ffffffffffffffff80841115612fa157612fa1612f70565b604051601f8501601f19908116603f01168101908282118183101715612fc957612fc9612f70565b81604052809350858152868686011115612fe257600080fd5b858560208301376000602087830101525050509392505050565b600082601f83011261300d57600080fd5b6110d583833560208501612f86565b600080600080600060a0868803121561303457600080fd5b8535945061304460208701612f5e565b935061305260408701612f5e565b9250606086013567ffffffffffffffff8082111561306f57600080fd5b61307b89838a01612ffc565b9350608088013591508082111561309157600080fd5b5061309e88828901612ffc565b9150509295509295909350565b600080600080608085870312156130c157600080fd5b84356130cc81612e55565b935060208501356130dc81612e55565b925060408501359150606085013567ffffffffffffffff8111156130ff57600080fd5b8501601f8101871361311057600080fd5b61311f87823560208401612f86565b91505092959194509250565b6000806040838503121561313e57600080fd5b823561314981612e55565b91506020830135612f5381612e55565b600181811c9082168061316d57607f821691505b60208210810361318d57634e487b7160e01b600052602260045260246000fd5b50919050565b6000602082840312156131a557600080fd5b5051919050565b6000602082840312156131be57600080fd5b81516110d581612f17565b634e487b7160e01b600052601160045260246000fd5b6000828210156131f1576131f16131c9565b500390565b60008151613208818560208601612dd1565b9290920192915050565b7f7b226e616d65223a20225069656365202300000000000000000000000000000081526000865161324a816011850160208b01612dd1565b7f222c202268696464656e4c6576656c223a2000000000000000000000000000006011918401918201528651613287816023840160208b01612dd1565b7f2c20226a69747465724c6576656c223a200000000000000000000000000000006023929091019182015285516132c5816034840160208a01612dd1565b7f2c2022706f656d223a202200000000000000000000000000000000000000000060349290910191820152845161330381603f840160208901612dd1565b7f222c20226465736372697074696f6e223a22504f454d206973206120636f6c6c603f92909101918201527f61626f72617469766520706f65747279207061746866696e6465722e20417320605f8201527f746f6b656e7320617265206d696e7465642c207472616e736665727265642c20607f8201527f616e642068656c642c207468652070617468206265666f726520757320636861609f8201527f6e6765732e20546f2074616b6520746865206e65787420737465702c2077652060bf8201527f6d757374206275726e206120746f6b656e2e204c65742075732073656520776860df8201527f61742077652063726561746520746f6765746865722e222c2022696d6167652260ff8201527f3a2022646174613a696d6167652f7376672b786d6c3b6261736536342c00000061011f82015261344761013c8201856131f6565b61227d60f01b815260020198975050505050505050565b600060ff821660ff841680821015613478576134786131c9565b90039392505050565b600081600019048311821515161561349b5761349b6131c9565b500290565b6000600182016134b2576134b26131c9565b5060010190565b634e487b7160e01b600052601260045260246000fd5b6000826134de576134de6134b9565b500490565b600060ff821660ff84168060ff03821115613500576135006131c9565b019392505050565b634e487b7160e01b600052603260045260246000fd5b60006001600160a01b03808716835280861660208401525083604083015260806060830152610f586080830184612dfd565b60006020828403121561356257600080fd5b81516110d581612d9e565b60008261357c5761357c6134b9565b500690565b7f646174613a6170706c69636174696f6e2f6a736f6e3b6261736536342c0000008152600082516135b981601d850160208701612dd1565b91909101601d0192915050565b600061ffff838116908316818110156135e1576135e16131c9565b039392505050565b61181760f11b815260008251613606816002850160208701612dd1565b9190910160020192915050565b600061ffff80831681851681830481118215151615613634576136346131c9565b02949350505050565b60008219821115613650576136506131c9565b500190565b7f3c73766720786d6c6e733d22687474703a2f2f7777772e77332e6f72672f323081527f30302f73766722206865696768743d2231303025222077696474683d2231303060208201527f25222076696577426f783d22302030203830302038303022207374796c653d2260408201527f6261636b67726f756e643a23316131613161223e3c646566733e3c66696c746560608201527f722069643d2261646a0000000000000000000000000000000000000000000000608082015260008551613725816089850160208a01612dd1565b7f2220783d22302220793d2230223e3c666554757262756c656e636520747970656089918401918201527f3d2274757262756c656e63652220626173654672657175656e63793d22302e3060a98201527f30312220736565643d220000000000000000000000000000000000000000000060c98201526137a860d38201876131f6565b7f22206e756d4f6374617665733d220000000000000000000000000000000000008152905061385b6138556137e0600e8401886131f6565b7f22726573756c743d2274757262756c656e636522202f3e3c6665446973706c6181527f63656d656e744d61702020696e323d2274757262756c656e6365222020696e3d60208201527f22536f75726365477261706869632220207363616c653d220000000000000000604082015260580190565b856131f6565b7f22202f3e3c2f66696c7465723e3c2f646566733e0000000000000000000000008152601401979650505050505050565b6000835161389e818460208801612dd1565b8351908301906138b2818360208801612dd1565b01949350505050565b600061ffff808416806138d0576138d06134b9565b92169190910492915050565b600060ff8316806138ef576138ef6134b9565b8060ff84160491505092915050565b600060ff821660ff84168160ff048111821515161561391f5761391f6131c9565b029392505050565b600060ff821660ff810361393d5761393d6131c9565b60010192915050565b7f3c7374796c653e5b636c6173732a3d276e6f646500000000000000000000000081526000885161397e816014850160208d01612dd1565b7f2d275d7b666f6e742d73697a653a313870783b666f6e742d66616d696c793a736014918401918201527f657269663b6865696768743a313030253b6f766572666c6f773a6175746f3b6f60348201527f7061636974793a0000000000000000000000000000000000000000000000000060548201528851613a0781605b840160208d01612dd1565b01613a34605b82017f7d202e6e6f6465000000000000000000000000000000000000000000000000009052565b613a4160628201896131f6565b7f2d64656661756c747b636f6c6f723a236139613961393b7d202e6e6f6465000081529050613ab3613aad613a79601e84018a6131f6565b7f2d6e6f7453656c65637465647b636f6c6f723a233535353535353b7d202e6e6f815261646560f01b602082015260220190565b876131f6565b7f2d73656c65637465647b636f6c6f723a77686974653b7d202e6e6f646500000081529050613b60613855613aeb601d8401886131f6565b7f2d68696464656e7b636f6c6f723a233333333333333b746578742d6465636f7281527f6174696f6e3a6c696e652d7468726f7567683b7d3c2f7374796c653e3c73766760208201527f2066696c7465723d2275726c282361646a000000000000000000000000000000604082015260510190565b6214911f60e91b81526003019a9950505050505050505050565b60008251613b8c818460208701612dd1565b7f3c2f7376673e3c2f7376673e0000000000000000000000000000000000000000920191825250600c01919050565b7f3c7374796c653e2e73656e74656e636500000000000000000000000000000000815260008351613bf3816010850160208801612dd1565b7f7b666f6e742d73697a653a373070783b666f6e742d66616d696c793a736572696010918401918201527f663b636f6c6f723a77686974653b6865696768743a313030253b6f766572666c60308201527f6f772d777261703a627265616b2d776f72643b6f7061636974793a000000000060508201528351613c7c81606b840160208801612dd1565b7f7d3c2f7374796c653e0000000000000000000000000000000000000000000000606b9290910191820152607401949350505050565b7f73656e74656e6365000000000000000000000000000000000000000000000000815260008251613cea816008850160208701612dd1565b9190910160080192915050565b7f75726c282361646a000000000000000000000000000000000000000000000000815260008251613d2f816008850160208701612dd1565b602960f81b6008939091019283015250600901919050565b60008651613d59818460208b01612dd1565b865190830190613d6d818360208b01612dd1565b8651910190613d80818360208a01612dd1565b8551910190613d93818360208901612dd1565b8451910190613da6818360208801612dd1565b01979650505050505050565b60008351613dc4818460208801612dd1565b835190830190613dd8818360208801612dd1565b7f3c2f7376673e00000000000000000000000000000000000000000000000000009101908152600601949350505050565b60006001600160a01b0380841680613e2357613e236134b9565b92169190910692915050565b60008551613e41818460208a01612dd1565b855190830190613e55818360208a01612dd1565b8551910190613e68818360208901612dd1565b8451910190613e7b818360208801612dd1565b019695505050505050565b60008351613e98818460208801612dd1565b603d60f81b908301908152601160f91b60018201528351613ec0816002840160208801612dd1565b61011160f51b60029290910191820152600401949350505050565b636e6f646560e01b815260008251613efa816004850160208701612dd1565b7f2d73656c656374656400000000000000000000000000000000000000000000006004939091019283015250600d01919050565b636e6f646560e01b815260008251613f4d816004850160208701612dd1565b7f2d68696464656e000000000000000000000000000000000000000000000000006004939091019283015250600b01919050565b636e6f646560e01b815260008251613fa0816004850160208701612dd1565b7f2d6e6f7453656c656374656400000000000000000000000000000000000000006004939091019283015250601001919050565b636e6f646560e01b815260008251613ff3816004850160208701612dd1565b7f2d64656661756c740000000000000000000000000000000000000000000000006004939091019283015250600c01919050565b600f60fa1b815260008551614043816001850160208a01612dd1565b600160fd1b6001918401918201528551614064816002840160208a01612dd1565b808201915050601f60f91b8060028301528551614088816003850160208a01612dd1565b613c2f60f01b6003939091019283015284516140ab816005850160208901612dd1565b6005920191820152600601969550505050505056fe4142434445464748494a4b4c4d4e4f505152535455565758595a6162636465666768696a6b6c6d6e6f707172737475767778797a303132333435363738392b2fa164736f6c634300080f000a",
    "linkReferences": {},
    "deployedLinkReferences": {}
}